:020000040800F2
:1000000000000220E9050008DD050008A9560008E7
:10001000DD050008DD050008DD0500080000000022
:10002000000000000000000000000000DD050008E6
:10003000DD05000800000000DD0500082D56000861
:10004000DD050008DD050008DD050008DD05000808
:10005000DD050008DD050008DD050008DD050008F8
:10006000DD050008DD050008DD050008093F000882
:10007000153F000811270008213F00082D3F000808
:100080005150000839300008DD050008DD05000882
:10009000DD050008DD050008DD050008DD050008B8
:1000A000DD050008DD050008DD050008DD050008A8
:1000B000AD140108B9140108C51401086D30000819
:1000C000DD05000879300008DD050008F50C0108A1
:1000D000010D0108854E0008B14E0008E54E0008EC
:1000E000DD050008DD05000800000000DD05000852
:1000F000DD050008DD050008DD050008DD05000858
:10010000DD050008DD050008D11401080D0D01080A
:10011000194F00084D4F0008DD050008DD050008F7
:10012000DD050008DD050008310D0108650D010839
:1001300085500008DD050008DD050008DD05000824
:1001400000000000000000000000000000000000AF
:10015000DD050008DD050008DD050008814F000809
:1001600085300008DD0500083D560008615600088E
:10017000DD05000885560008DD050008DD050008DE
:10018000DD050008DD050008B54F0008E94F00084F
:10019000190D0108250D0108DD050008DD05000821
:1001A000DD050008DD050008DD050008DD050008A7
:1001B000FD3B0008DD050008DD050008DD05000841
:1001C000DD050008DD050008DD050008DD05000887
:1001D000DD050008DD050008DD050008DD05000877
:1001E000DD050008DD050008DD050008DD05000867
:1001F000DD050008DD050008DD050008DD05000857
:10020000DD050008DD050008DD050008DD05000846
:10021000DD050008DD050008DD050008DD05000836
:10022000DD050008DD050008DD0500080000000010
:10023000DD050008DD05000800000000DD05000800
:10024000DD050008DD050008DD050008DD05000806
:10025000DD050008DD050008DD050008DD050008F6
:10026000DD050008DD050008DD050008DD050008E6
:10027000DD050008DD0500081D5000080000000035
:10028000DD050008DD050008DD05000800000000B0
:0802900000000000DD0500087C
:1002980010B5054C237833B9044B13B10448AFF3B8
:1002A80000800123237010BD880300240000000093
:1002B800C02B010808B5034B1BB103490348AFF332
:1002C800008008BD000000008C030024C02B01083A
:1002D80053B94AB9002908BF00281CBF4FF0FF31A5
:1002E8004FF0FF3000F074B9ADF1080C6DE904CEA1
:1002F80000F006F8DDF804E0DDE9022304B07047F9
:100308002DE9F047089D04468E46002B4DD18A42C0
:10031800944669D9B2FA82F252B101FA02F3C2F1F3
:10032800200120FA01F10CFA02FC41EA030E944084
:100338004FEA1C48210CBEFBF8F61FFA8CF708FBA5
:1003480016E341EA034306FB07F199420AD91CEB7D
:10035800030306F1FF3080F01F81994240F21C81AF
:10036800023E63445B1AA4B2B3FBF8F008FB1033F7
:1003780044EA034400FB07F7A7420AD91CEB04042C
:1003880000F1FF3380F00A81A74240F207816444FC
:10039800023840EA0640E41B00261DB1D440002381
:1003A800C5E900433146BDE8F0878B4209D9002DE5
:1003B80000F0EF800026C5E9000130463146BDE86F
:1003C800F087B3FA83F6002E4AD18B4202D38242D9
:1003D80000F2F980841A61EB030301209E46002D88
:1003E800E0D0C5E9004EDDE702B9FFDEB2FA82F2DD
:1003F800002A40F09280A1EB0C014FEA1C471FFA3B
:100408008CFE0126200CB1FBF7F307FB131140EA21
:1004180001410EFB03F0884208D91CEB010103F1EE
:10042800FF3802D2884200F2CB804346091AA4B2B0
:10043800B1FBF7F007FB101144EA01440EFB00FE84
:10044800A64508D91CEB040400F1FF3102D2A645E9
:1004580000F2BB800846A4EB0E0440EA03409CE788
:10046800C6F12007B34022FA07FC4CEA030C20FA35
:1004780007F401FA06F31C43F9404FEA1C4900FA55
:1004880006F3B1FBF9F8200C1FFA8CFE09FB1811D2
:1004980040EA014108FB0EF0884202FA06F20BD945
:1004A8001CEB010108F1FF3A80F08880884240F295
:1004B8008580A8F102086144091AA4B2B1FBF9F0D9
:1004C80009FB101144EA014100FB0EFE8E4508D9D4
:1004D8001CEB010100F1FF346CD28E456AD9023859
:1004E800614440EA0840A0FB0294A1EB0E01A1423E
:1004F800C846A64656D353D05DB1B3EB080261EBAC
:100508000E0101FA07F722FA06F3F1401F43C5E985
:10051800007100263146BDE8F087C2F12003D840BB
:100528000CFA02FC21FA03F3914001434FEA1C47FD
:100538001FFA8CFEB3FBF7F007FB10360B0C43EAEF
:10054800064300FB0EF69E4204FA02F408D91CEB9F
:10055800030300F1FF382FD29E422DD9023863449D
:100568009B1B89B2B3FBF7F607FB163341EA03413D
:1005780006FB0EF38B4208D91CEB010106F1FF388C
:1005880016D28B4214D9023E6144C91A46EA004683
:1005980038E72E46284605E70646E3E61846F8E615
:1005A8004B45A9D2B9EB020864EB0C0E0138A3E75E
:1005B8004646EAE7204694E74046D1E7D0467BE73F
:1005C800023B614432E7304609E76444023842E7B7
:1005D800704700BF684620F007018D46FEE700BF60
:1005E8000B480C4A904208B503D0121A0A4912F077
:1005F8003FF90A480A4A904203D0121A002112F021
:1006080045F905F0B5FA12F00FF900F045F8FEE7E4
:100618000000002488030024F82B01088803002424
:10062800C0CA002400F51043D3F8D83310B50446E7
:100638002BB149F2D031032201440846984720469D
:1006480010BD00BF0AB303689FED117A03EB820265
:10065800D1E90001F3EC017AF0EEE76AE0EC017A07
:10066800E1EC017AF4EE476AF1EE10FA36FE877A89
:100678009342EFD1074BD3ED007AF4EEC77AF1EE4F
:1006880010FA01D583ED007A70479FED017AF1E702
:1006980000000000A403002470B5002429482A4D56
:1006A8002146264600F07AF93021264800F0D8F88D
:1006B8002649244800F0D2F81EE0F7EE000A244844
:1006C800B0EE410A01F056FDB7EE000AD5ED007A0A
:1006D8009FED201AF4EEC07A85ED001AF1EE10FABB
:1006E8001FDBF0EE410A1C4801F044FD154800F0FC
:1006F800CDF8012005F046F805F042F8831BB3F564
:10070800FA7F02D384F0010406469FED121A002CEA
:10071800D3D1F0EE410A0E48B0EE410A01F02AFDAD
:10072800D2E79FED0E7A0C48F4EEC77AF1EE10FA94
:10073800CCBFF0EE400AF0EE410AB0EE410A01F0FB
:1007480019FDD3E7A8030024A40300244D060008DC
:100758001005002400000000940500246F12833A5D
:1007680038B56FF0F412394C00254FF60B730B2196
:1007780004F51C70A362E363A365C4F88430C4F86D
:10078800A030C4F8B430C4F82031656125626563CF
:10079800A56465662567C4F89050C4F8AC50C4E9F0
:1007A8000052C4E90222FF22C4E90B55C4E91055DE
:1007B800C4E91755C4E92255C4E92955C4E92E5599
:1007C800C4F8C05084F8801184F88121C4F82C51F1
:1007D800C4F88451C4E95135C4E96B35C4E97635A8
:1007E800C4E98135C4E98C35C4E99735C4E949556C
:1007F800C4E95355C4E96255C4E96D55C4E978554F
:10080800C4E98355C4E98E55C4E9995501F072FCD1
:100818000F4A40F20F7304F55071C4F8282340F2D0
:100828000112A4F82C3304F51043C4F83013204601
:10083800C4F88052C4F83C53C3F8D8530549C4E9F6
:10084800CD25054ABDE8384011F0DABFA8030024D9
:100858000080707F2D0600080000002400F07EB99B
:1008680038B5044600F07EF9D4F81051204600F05F
:1008780095F9284601F0E4FBD4F81451204600F01D
:100888008DF92846BDE8384001F0DABB10B50446BA
:1008980000F5B47001F09EFC04F5F670BDE8104058
:1008A80001F098BC000000002DE9F0414FF60B72F2
:1008B800374900240546096805F1180705F58876C3
:1008C8002DED028B9FED307BACB09FED328A02A8F4
:1008D800ADF80820ADF81C20ADF83020ADF8442064
:1008E800ADF85C20ADF87020ADF88420ADF8982004
:1008F800022203940A940F9414941A941F94249433
:1009080029948DED087B8DED127B8DED187B8DED97
:10091800227BCDE90444CDE90D44CDE91D44CDE960
:10092800274401F07DFC1C4B022217A8196801F02E
:1009380077FC042302A90222384601F081FC05F164
:10094800D003C5F8103105F1F003C5F8143121467C
:10095800384656F8048B01F07BFE01462846019183
:1009680000F01CF90023F0EE480A019940461A46A7
:1009780001F034FB24B12CB0BDEC028BBDE8F08152
:100988000124E4E7AFF3008000000000000000004D
:10099800E82801086F12033BEC2801082DE9F04F05
:1009A80004464FF001092DED028B99B09FED5E8A48
:1009B80004F58C7604F59E75039100F0CDF8039943
:1009C800204600F0ADF9594B3046B0EE480A196898
:1009D80004F5B47B01F00CFC554B2846B0EE480AF0
:1009E800196804F5F67A01F003FC524B524AB0EE4E
:1009F800480A524904F174001B6805AF126804F5EF
:100A080020780968C4F8606111AEC4F864510DAD6E
:100A180001F042FB4A4B4B4A58464B491B68126847
:100A28000968CDF8009001F07DFB484B484A5046D4
:100A380048491B6812680968CDF8009001F072FBFC
:100A4800072128468DED0D8A8DED0E8A8DED0F8AD2
:100A580005F0C8F995E8070086E8070031465846CA
:100A680001F0A2FB95E8070086E8070031465046EA
:100A780001F09AFB584601F0ADFB504601F0AAFB85
:100A88002046FFF711FF384601F034FB47F61223E2
:100A98000DF1240E04F51C7C17930223CDF84C901D
:100AA8001593CDF858904FF0000997E80F008CE89F
:100AB8000F008EE80F0085E80F00BDF83830CDF83C
:100AC8005090ADF84630BDF83A301290ADF8443049
:100AD800D4E99EE7C4E9A1E727B13A4649467046FA
:100AE80011F0D4FE3146404604F0C4FB04F52570ED
:100AF80001F012FB3021204600F034F8D4F81051F0
:100B0800204600F04BF8284601F09AFAD4F8145120
:100B1800204600F043F8284619B0BDEC028BBDE82A
:100B2800F04F01F08DBA00BF000000000C29010849
:100B380010290108082901081829010814290108A1
:100B4800F0280108F4280108F8280108FC28010801
:100B58000029010804290108704700BF143001F07A
:100B680009BA00BF38B500F1140504462DED028B13
:100B7800284601F0EDF9284601F0F8F92846B0EECC
:100B8800408A01F0E1F9D0ED007AF8EE677A88EE54
:100B9800277ABDEC028B84ED1B7A38BD90ED1B0AD9
:100BA800704700BF10B540F203338EB000244FF6F3
:100BB8000B7240F20341ADF8083009A80123ADF8E3
:100BC8001020ADF824202246ADF80C1000940299AC
:100BD80007940C94CDE90544CDE90A4401F07AFF65
:100BE80004A8012322460399009401F073FF09A881
:100BF80002F056F810B901200EB010BD04A802F09A
:100C08004FF8A0420CBF022020460EB010BD00BF16
:100C18002DE9F04103239AB04FF0010800254FF663
:100C28000B740746CDE91438394BADF84C40CDE983
:100C38001053A3F19F63A3F57D43CDE91658129392
:100C4800FFF7B0FF4045064623D0022842D040F6C1
:100C58000132304B07F158000BACADF82C200B9942
:100C68001895CDF86480CDF84A3000F0DBF810A96B
:100C780007F1700003F0D0F9274B0FCB84E80F0081
:100C88003A6F214607F1140001F026F91AB0BDE8C1
:100C9800F08110231F4A06A906908DF828300BAC66
:100CA8001E4BCDF84A2007930295CDE91805CDE9EA
:100CB800080502A802F0E8F90823029A03A92046C9
:100CC800ADF80C608DF80E50049605930B9500F066
:100CD800E9F8CCE740F60133ADF82C4000200BAC26
:100CE800ADF8183001210B4B42460095CDF84A303B
:100CF8002B460E95CDE9180106992046CDE90C55ED
:100D080001F0E8FE2946204601F0D6FFAFE700BF14
:100D18000402040404060403A42801080704010BC0
:100D28002DE9F04704462DED028B82B0002949D009
:100D3800012140F2011200230091ADF804208DF842
:100D48000630354A0127354B04F10409344904F1CA
:100D58003C08626040F20272A36040F60663E160FC
:100D680004F1280A2285A3872782E762276404F012
:100D7800B5FE054604F008FD6946064650BB4DB36E
:100D880004F150008DF8067004F02AFE072D3ED1BC
:100D980004F114052046FFF73BFF284601F0E6F86A
:100DA8002846B0EE408A01F0CFF8D0ED007AF8EE90
:100DB800677A88EE277A84ED1B7A02B0BDEC028B45
:100DC800BDE8F08740F2011300918DF80610ADF8E8
:100DD8000430B6E704F1500004F002FE072D13D0EA
:100DE8004946204602F024FD0EB9002DD0D15146C7
:100DF800504601F0ABFC4046414601F0A7FC04F127
:100E0800120000F079F9C3E7002EF0D1C0E7494697
:100E1800204602F00DFDBBE7050805090507050694
:100E2800050A060630B585B0002504460122ADF84E
:100E38000C102B460399009501F04CFE0121204629
:100E480001F03AFF012004F09DFC2946204601F0FC
:100E580033FF012004F096FC0121204605B0BDE8CF
:100E6800304001F029BF00BF10B5C2F3002384B0A1
:100E78000C46017C8DF80D2043EA4402FA24022333
:100E88008DF80C2003AA009402F096F918B10124F9
:100E9800204604B010BD04460A2004F073FC204626
:100EA80004B010BD034670B543F8042B044684B063
:100EB80007C983E80700A37983B91A210B461E22C4
:100EC800FA2523742046ADF80C20022303AA0095C6
:100ED80002F072F928B1012004B070BD1B210B4645
:100EE800EDE70A2004F04EFC4FF4B85200950223B7
:100EF800ADF80C20204603AA217C02F05DF90028F9
:100F0800E9D10A2004F03EFC41F202720095022366
:100F1800ADF80C20204603AA217C02F04DF90028E8
:100F2800D9D10A2004F02EFC042200950223ADF842
:100F38000C20204603AA217C02F03EF90028CAD1E1
:100F48000A2004F01FFC062200950223ADF80C20AD
:100F5800204603AA217C02F02FF90028BBD10A20E1
:100F680004F010FC41F2082200950223ADF80C2091
:100F7800204603AA217C02F01FF90028ABD10A20E1
:100F8800064604F0FFFB0095022303AA217C2046B5
:100F9800ADF80C6002F010F900289CD1304604F03E
:100FA800F1FB009522790C232046002A8DF80C309D
:100FB80003AA4FF0020314BF622142218DF80D10DD
:100FC800217C02F0F9F8002885D1304604F0DAFBDC
:100FD8002279D4E902310B43DBB20AB943F040036A
:100FE80062790AB143F020030E22FA258DF80D30FC
:100FF8002046009502238DF80C2003AA217C02F0DC
:10100800DBF800287FF467AF0A2004F0BBFB10224E
:1010180000950223ADF80C20204603AA217C02F09B
:10102800CBF800287FF457AF0A2004F0ABFB12215D
:1010380000950223ADF80C1003AA217C204602F08B
:10104800BBF800287FF447AF0A2004F09BFB01227D
:1010580009212046FFF708FF003818BF01203BE7A9
:10106800F0B5102387B0234C012200250126002764
:1010780002A920460195CDE902234FF48052CDE91B
:1010880004670CF0B3FB642004F026FF02A94FF4B8
:1010980080522046CDE9046702261027CDE9026771
:1010A8000CF0A4FB0322102302A92046CDE9022359
:1010B80000230422CDE904234FF480520CF096FB60
:1010C80040F23223042202A9019310232046CDE9DD
:1010D8000223019A012305924FF4805204930CF0E5
:1010E80085FB40F6060120460CF0A0FB284607B019
:1010F800F0BD00BF909700241C4B00221C494FF004
:10110800400C30B5054689B00220596007219A6025
:101118001A620124DA620A224FF4006EDC60069239
:101128002022CDE9000104200821CDE90201032095
:101138001021CDE9040108206946C3E904024FF4EF
:10114800C072181DC3E906C24FF48052C3E909E210
:101158000CF022FB38B92846FFF782FF003818BF89
:10116800012009B030BD204609B030BD8C9700245D
:1011780040410052614A0021D0B513688EB00A91EF
:10118800002B40F0B9805E4B01214FF683700C2490
:1011980011600221D3F8D4200026032742F480529C
:1011A800C3F8D420D3F8D42002F480520092009AD5
:1011B800D3F8E02042F01002C3F8E020D3F8E02092
:1011C80002F010020192019AD3F8E02042F04002A6
:1011D800C3F8E020D3F8E02002F040020292029A1D
:1011E800D3F8E02042F00802C3F8E020D3F8E0206A
:1011F80002F008020392039AD3F8E02042F48072C6
:10120800C3F8E020D3F8E02002F480720492049A34
:10121800D3F8E02042F08002C3F8E020D3F8E020C1
:1012280002F080020592059AD3F8E02042F02002ED
:10123800C3F8E020D3F8E02002F020020692069AD4
:10124800D3F8E02042F00402C3F8E020D3F8E030FD
:101258000C9403F0040307930323079A0B93CDE937
:10126800080108A9274806F00BFE48F237120223A6
:1012780008A925480C94CDE90823CDE90A6706F0AA
:10128800FFFD4CF20372022308A920480C94CDE913
:101298000823CDE90A6706F0F3FD40F2FF62022356
:1012A80008A91B480C94CDE90823CDE90A6706F084
:1012B800E7FD4FF60C72022308A916480C94CDE9F5
:1012C8000823CDE90A6706F0DBFD4FF63F0202234B
:1012D80008A911480C94CDE90823CDE90A6706F05E
:1012E800CFFD2022022308A90A480C94CDE90A67F9
:1012F800CDE9082306F0C4FD0EB0D0BD88970024C0
:10130800004402580010025800180258000C0258F5
:1013180000200258001C0258001402582DE9F04F12
:10132800DFF8108406460D46144608F118002DED26
:10133800028B89B000AF02F06FFFD8F8183073B392
:10134800D8F81C30D8F80490002B43690BBF4FF035
:10135800080A4FF0100A4FF0020B4FF0040BB9F1D6
:10136800000F2AD0A200EA46012B02F1070222F060
:101378000702ADEB020D6846ADEB020D694600F0C1
:101388003F81022B00F0D680002B6FD02246C84741
:10139800D5462437BD46BDEC028BBDE8F08FD8F8A2
:1013A8001C30002BF5D0D8F804904FF0080A4FF005
:1013B800020B4369B9F1000FD4D1FB61D8F80030B2
:1013C800BB61002BE5D0D54802F098FF6B46BBF116
:1013D800020F786108EE103AFB6900F083816A46D3
:1013E8005146A2EBC40295466200EA46B2FBFBF204
:1013F800AAEBC40085460AEB8200EE46F861ADEB25
:10140800010DF8690EEB820CC7F810C0EC46ADEB85
:10141800010D00EB8201CCF80400CCF8081001EBB8
:1014280082013869E946CCF80C1000EB8201CCF84F
:1014380000A001EB8202C9E900E0C9E90212012B10
:1014480000F06483022B00F06C82002B00F0808196
:10145800620849466046BB69984718EE103A243737
:101468009D46BD46BDEC028BBDE8F08F002C8DD0AB
:101478001A46D8ED0C6A9FEDB27A8446331D36F9C8
:1014880022E00CF1080C07EE90EA33F922E0023270
:10149800F8EEE77A944267EE877A67EEA67A4CED23
:1014A800027A07EE90EAF8EEE77A67EE877A67EE57
:1014B800A67A4CED017AE2D8F9612246C847984EDF
:1014C800D8ED0D6A0020F9692B1D9FED9E7A9FEDDE
:1014D8009E6ADFED9E5A22E0F4EEC67AF1EE10FA2B
:1014E800C0F2C88447F6FE72D1ED017A45F8202093
:1014F80066EEA77AF4EEC77AF1EE10FA40F2F080C1
:10150800F4EEC67AF1EE10FAC0F2D58447F6FE7210
:1015180043F820200230083184427FF639AFD1EDFC
:10152800007A66EEA77AF4EEC77AF1EE10FAD3D80D
:101538003246D9E7002C3FF429AFD8ED0C6A84462F
:101548009FED787A0022331D8E4656F822100CF152
:10155800080C07EE901A53F822100232F8EEE77AD8
:10156800944267EE877A67EEA67A4CED027A07EE28
:10157800901AF8EEE77A67EE877A67EEA67A4CED6E
:10158800017AE2D871462246C7F81CE0C847664E81
:10159800D8ED0D6A0020F9692B1D9FED6A7A9FED41
:1015A8006A6ADFF894C120E0F4EEC67AF1EE10FA28
:1015B800C0F279843246D1ED017A45F8202066EEF2
:1015C800A77AF4EEC77AF1EE10FA40F28780F4EECB
:1015D800C67AF1EE10FAC0F25E84324643F8202053
:1015E8000230083184427FF6D3AED1ED007A66EE40
:1015F800A77AF4EEC77AF1EE10FAD5D86246DAE7A0
:10160800002C3FF4C3AED8ED0C6A86469FED477AAE
:101618004FF0000C331D56F82C200EF1080E82F402
:101628000002A2F5000207EE902A53F82C200CF1D4
:10163800020CF8EEE77A82F400026445A2F5000293
:1016480067EE877A67EEA67A4EED027A07EE902A61
:10165800F8EEE77A67EE877A67EEA67A4EED017ABA
:10166800D9D8F9612246C847314ED8ED0D6A002015
:10167800F9692B1D9FED337A9FED336ADFF8BCC003
:101688001FE0F4EEC67AF1EE10FAC0F2FC8332469F
:10169800D1ED017A45F8202066EEA77AF4EEC77AF4
:1016A800F1EE10FA18D9F4EEC67AF1EE10FAC0F29B
:1016B800DA83324643F820200230083184427FF62C
:1016C80067AED1ED007A66EEA77AF4EEC77AF1EE4E
:1016D80010FAD6D86246DBE76246EBE762467DE75A
:1016E800324615E7A100D6466208073121F0070106
:1016F800ADEB010DEA46ADEB010D6946ADEB0E0D04
:101708000AEB8200EC46ADEB0E0D01EB8202F861AC
:10171800E946CCE900A0C9E9001290E6E097002468
:101728000280FFFF000000300082FF7F00000034CD
:1017380082FF7F00C4970024007E00807E0080FF27
:101748000000003804FF7FBF04FF7F3F00FEFF4614
:10175800002C00F0C982BBF1020FD8F8242000F059
:10176800FA827969C7F8049002EB810E5FED0C5A92
:101778008A00DCF808100EF104007A611A46DCF8D9
:101788000C303B61331DD7F810903D61FD69C7E906
:1017980002CB8C46834636F92210D8ED0C7A06EE39
:1017A800101A33F9221006EE901A3EF92210B8EEFC
:1017B800C66A07EE101AF8EEE66A3BF92210B8EE90
:1017C800C77A26EE256A66EEA56A27EE257A26EE02
:1017D800276A66EEA76A27EE277A07EE901A51085D
:1017E8000232F8EEE77A0AEB8100944280ED006A53
:1017F80005EB810067EEA57AC0ED006A0CEB81006D
:1018080009EB810180ED007A98ED0C7A67EE877A12
:10181800C1ED007ABFD8D7F804903D69D7E902CB6B
:1018280060466208BB6949469847D8F82C307A69FF
:10183800D8ED0D6A1A441FED3D7A1FED3D6A2B1D48
:10184800904602F1040A5FED3F5A0022A84ED9E9FA
:1018580000EC51E0F4EEC67AF1EE10FAC0F2C7825D
:1018680047F6FE7045F822000CEB0100D0ED007A37
:1018780066EEA77AF4EEC77AF1EE10FA4BD9F4EED9
:10188800C67AF1EE10FAC0F2BA8247F6FE70BBF1E2
:10189800020F43F822002BD0D9F808000844D0EDF5
:1018A800007A66EEA77AF4EEC77AF1EE10FA36D926
:1018B800F4EEC67AF1EE10FAC0F2CD8247F6FE7069
:1018C80048F82200D9F80C000144D1ED007A66EE00
:1018D800A77AF4EEC77AF1EE10FA1ED9F4EEC67ABA
:1018E800F1EE10FAC0F2AF8247F6FE714AF8221004
:1018F800023294427FF6B1AD51080EEB81008900A7
:10190800D0ED007A66EEA77AF4EEC77AF1EE10FA17
:10191800A0D83046A6E73046B9E73146E6E7304674
:10192800CEE7002C00F0E081BBF1020FD8F824309C
:1019380000F0E1817A69DCF8081003EB820EC7F841
:1019480004909300DFED6B5A0EF1040000227B61D6
:10195800DCF80C303B61331DD7F810903D61FD6910
:10196800C7E902CB8C46834656F82210D8ED0C7A8C
:1019780007EE101A53F82210B8EEC76A07EE101ACD
:101988005EF82210F8EEC76A07EE101A26EE256AEE
:101998005BF82210B8EEC77A66EEA56A26EE276ACB
:1019A80027EE257A66EEA76A27EE277A07EE901AC1
:1019B80051080232F8EEE77A0AEB8100944280ED92
:1019C800006A05EB810067EEA57AC0ED006A0CEBB2
:1019D800810009EB810180ED007A98ED0C7A67EEC1
:1019E800877AC1ED007ABFD8D7F804903D69D7E966
:1019F80002CB60466208BB6949469847D8F82C3044
:101A08007A69D8ED0D6A1A449FED3E7A9FED3E6AD9
:101A1800131D9246DFF8E4C00022FB612B1D364EF1
:101A2800D9E9008E4EE0F4EEC67AF1EE10FAC0F273
:101A3800FC81304645F822000EEB0100D0ED007A1B
:101A480066EEA77AF4EEC77AF1EE10FA49D9F4EE09
:101A5800C67AF1EE10FAC0F2EF813046BBF1020F00
:101A680043F822002AD0D9F808000844D0ED007ABB
:101A780066EEA77AF4EEC77AF1EE10FA35D9F4EEED
:101A8800C67AF1EE10FAC0F2C98130464AF822004F
:101A9800D9F80C000144D1ED007A66EEA77AF4EE8D
:101AA800C77AF1EE10FA1ED9F4EEC67AF1EE10FA02
:101AB800C0F2AD813146F86940F8221002329442F2
:101AC8007FF6CBAC510808EB81008900D0ED007A95
:101AD80066EEA77AF4EEC77AF1EE10FAA3D860465C
:101AE800A8E76046BAE76146E5E76046CEE700BF8B
:101AF8000280FFFF000000300082FF7F007E008030
:101B08000000003404FF7FBF04FF7F3F002C00F07B
:101B1800EB807A690021D8F82430C7F8109003EBDD
:101B2800820ED7F81C909300FD610EF104021FEDA0
:101B38000C6A7B61331D154656F821204808D8EDFC
:101B48000C6ABBF1020F82F40002A2F5000207EE54
:101B5800902A53F8212082F40002B8EEE77AA2F521
:101B6800000227EE067A07EE902A0AEB8002F8EECA
:101B7800E77A27EE267A67EE867A82ED007A09EB15
:101B880080024FEA800067EEA67AC2ED007A27D07D
:101B98005EF8212082F40002A2F5000207EE902AE6
:101BA80055F8212082F40002B8EEE77AA2F5000287
:101BB80027EE067A07EE902ADCF80820F8EEE77A96
:101BC800024427EE267A67EE867A82ED007A98ED4F
:101BD8000C7ADCF80C2067EE877A0244C2ED007AB2
:101BE80002318C42A8D8D7F8109060466208BB69C9
:101BF8004946FD699847D8F82C307A69D8ED0D6ABE
:101C08001A441FED407A1FED406A131D9246DFF813
:101C1800C4C20022FB612B1DAB4ED9E9008E4EE0F9
:101C2800F4EEC67AF1EE10FAC0F2C580304645F8F7
:101C380022000EEB0100D0ED007A66EEA77AF4EEF2
:101C4800C77AF1EE10FA49D9F4EEC67AF1EE10FA35
:101C5800C0F2BF803046BBF1020F43F822002AD001
:101C6800D9F808000844D0ED007A66EEA77AF4EEB9
:101C7800C77AF1EE10FA35D9F4EEC67AF1EE10FA19
:101C8800C0F2AE8030464AF82200D9F80C00014470
:101C9800D1ED007A66EEA77AF4EEC77AF1EE10FA83
:101CA8001ED9F4EEC67AF1EE10FAC0F28B803146F6
:101CB800F86940F82210023294427FF6CEAB510800
:101CC80008EB81008900D0ED007A66EEA77AF4EE81
:101CD800C77AF1EE10FAA3D86046A8E76046BAE7DB
:101CE8006146E5E76046CEE7224649466046BB695D
:101CF8009847FFF7B2BBC7F810B0002298ED0C6AFE
:101D0800331DDFED726AD7F81CB0786956F82210D7
:101D180007EE901A53F82210B8EEE77A07EE901AF9
:101D280051080232F8EEE77A27EE267A0AEB810E9E
:101D380094420BEB810167EEA67A27EE067A67EEEE
:101D4800867A8EED007AC1ED007ADFD88300D7F865
:101D580010B07B614DE61A46C7F810B098ED0C6AD2
:101D6800331DDFED5B6AD7F81CB0786936F92210AD
:101D780007EE101A33F9221007EE901AB8EEC77A58
:101D880051080232F8EEE77A27EE267A0AEB810E3E
:101D980094420BEB810167EEA67A27EE067A67EE8E
:101DA800867A8EED007AC1ED007ADFD88300D7F805
:101DB80010B07B6134E5F0EE675AFEEEE45A15EE9A
:101DC800900A34E7F0EE675AFEEEE45A15EE901AE0
:101DD8006EE7F0EE675AFEEEE45A15EE900A3AE71F
:101DE800F0EE675AFEEEE45A15EE900A4BE767EEFE
:101DF800A57AFDEEE77A17EE900A00B232E567EEB3
:101E0800A57AFDEEE77A17EE900A00B23FE5F0EE0C
:101E1800675AFEEEE05A15EE901A4CE6F0EE675A55
:101E2800FEEEE05A15EE900A30E6F0EE675AFEEE46
:101E3800E05A15EE900AFDE5F0EE675AFEEEE05A1C
:101E480015EE900A0AE667EEA57AFDEEE77A17EE38
:101E5800901A09B24AE567EEA57AFDEEE77A17EE21
:101E6800900A00B22CE5F0EE675AFEEEE45A15EE41
:101E7800902A1FE467EEA57AFDEEE77A17EE902A1E
:101E880012B2FFF731BBF0EE675AFEEEE45A15EED8
:101E9800902AFFF7FDBBF0EE675AFEEEE05A15EE0A
:101EA800902AFFF79BBBF0EE675AFEEEE05A15EE5C
:101EB800902AFFF780BB67EEA57AFDEEE77A17EE6A
:101EC800902A12B2FFF724BB82FF7F000000003087
:101ED800000000387E0080FF30B5184C154685B0EC
:101EE800046004F1080EEC460FC98EE80F00D4ED2B
:101EF800047AF5EEC07A8CE80F00F1EE10FA1ADDDC
:101F0800B7EE006A94ED057A27EE277AC6EE276ABF
:101F180084ED0D7AC4ED0C6A6DB1204640F8185F67
:101F280002F07AF9064903690020064A2162A26292
:101F3800E36005B030BD012005B030BDC497002472
:101F4800002000300000003000680830704700BFF3
:101F5800B1F5807F03680A4628BF4FF48072B1F557
:101F6800807F9A6094BF0020012070470068183075
:101F780002F0B2B930B5046883B00D46E3694BB1DD
:101F8800A3680020E26A616A9B00009004F11C00CB
:101F980002F044F9A3680748A26A9B00216A0090EE
:101FA80004F1180002F03AF90020C4E9005003B027
:101FB80030BD00BF2513000810B4074B4FF07E5109
:101FC80030240022032019619C60D8605DF8044B1E
:101FD8005961C3E906227047C4970024F6EE007AD7
:101FE8009FED166A20EE207A0160F7EE006A80ED18
:101FF800036A80ED020A27EE277AC6EE877AF4EEA6
:10200800E67AF1EE10FA11DDF0EE667A4FF07E51C5
:102018004FF0000C02760022C0ED017AC0F814C01F
:10202800016143768276C0ED070A7047F4EEC67AFE
:10203800F1EE10FAEAD5F0EE467AE7E70000000084
:10204800837E80ED020AABB9D0ED077A27EE800ACD
:10205800F6EE007AB7EE007A20EE270AC7EE007A8D
:10206800F4EEC77AF1EE10FA07DDF0EE477AC0ED2C
:10207800017A7047DFED067AE8E7F5EEC07AF1EE0F
:1020880010FAF4D5DFED037AC0ED017A704700BF8E
:102098006F12033B0000000030B5044687B00025EE
:1020A800ADF81410ADF81020ADF80C3003F068FB53
:1020B8002A462060059904F12C002571012300951A
:1020C80000F008FD01232A46049904F14000009518
:1020D80000F000FD9FED060A039904F1080000F0E6
:1020E80087F84FF6FF73A565A4F8543007B030BDE4
:1020F80000000000064A074910B40024C0E9004265
:102108004FF480725DF8044BC0E90212704700BFBB
:10211800010701060040003000220A230270037103
:10212800704700BF30B585B004469FED110A9DF891
:102138002050ADF80C100399ADF808202A46ADF8E8
:1021480004308DED000A0DF0D5FE9DED000A2A46FB
:10215800029904F12C000DF0CDFE9DED000A2A46EF
:10216800019904F1580005B0BDE830400DF0C2BE39
:1021780000007A4410B52DED028BF0EE608A04461B
:10218800B0EE418A0DF0D8FE04F12C00B0EE680ADA
:102198000DF0D2FEB0EE480A04F15800BDEC028BF7
:1021A800BDE810400DF0C8BE38B50C46054691EDA7
:1021B800000A0DF0C1FE94ED010A05F12C000DF0A6
:1021C800BBFE94ED020A05F15800BDE838400DF059
:1021D800B3BE00BF10B504460DF0C0FE04F12C00DC
:1021E8000DF0BCFE04F15800BDE810400DF0B6BE7D
:1021F80010B586B00446ADF80C10ADF8141003F015
:10220800BFFA4FF48071002220600123A18004F1FD
:102218000800A1830599009200F05CFC06B010BD8F
:1022280010B4002383B00324018080F8503080F874
:102238005120C0E9014303B05DF8044B704700BF6B
:102248002DE9F04FBE4F0024BE4D8DB0037007F14D
:102258004003426080461646894620222146384679
:10226800C5F88835C5F88475CDE90244CDE904443C
:10227800CDE90644CDE90844CDE90A4410F006FB4F
:102288002022214605F26250C5F85145C5F855454A
:10229800C5F85945C5F85D4510F0F8FA85F8506558
:1022A800D8F8043085F86846002B62D005F5AA6A8C
:1022B80009F1500B264609EB040128195222013670
:1022C80010F0D6FA4FF0000327F8023B1BF8043051
:1022D8000AF8013F002B70D0D8F804304FF0010203
:1022E80054349E4285F86826E5D3974A082195F824
:1022F80050350026C5F88C254FF4802293480027D6
:10230800C5F8A4350023C5F890250122C5F89C1509
:1023180095F86816C5F8943585F8A035C5F8982558
:10232800C0E9006700293ED0C5F8B82585F8A13571
:1023380085F8A835002298F80030C5F8BC25C5F8FE
:10234800C025002B40D0012200200121013B85F847
:10235800C4257F4AC2E90001082B37D8DFE813F00B
:10236800BD00C200C700CC00D100D600DB00E200EF
:10237800E900C5F89435F6B285F8A0350020724B0F
:102388000021C5F8A465C5F88C354FF48023C5F83D
:1023980090350123C5F898350823C5F89C3505F50F
:1023A800B663C3E90001012385F8A135002385F848
:1023B800A8350323C5F8B835BCE7D8F80430543439
:1023C800B3423FF678AF90E785F8C435614804F02A
:1023D80079F8034608B1FFBEFEE702A95D480293FB
:1023E80004F07EF90446002875D1042340F2FF72F8
:1023F8000A90CDE9082395F85035002B00F0F580B8
:1024080006234FF05409019309FB045393F8513004
:10241800072B07D8DFE803F0595C5653504D4A04A0
:102428000723079326B206EB4606C6EBC60605EB5E
:102438008608B700404600F06FFA09FB045393F88A
:102448005030042B00F3AD80022B00F3C08000F065
:10245800BC802B19002283F8402515F8262098F80F
:102468000130002A7CD0022A00F08D80012A40F039
:10247800B480012B00F0B380002B374B18BF00232A
:10248800059305A9019B3348069303F03DFD0028F9
:1024980040F0AE80013495F85035E4B2A34240F2E2
:1024A800A4802E4B53F824300193ADE706230793FD
:1024B800B8E705230793B5E704230793B2E7032397
:1024C8000793AFE702230793ACE700230793A9E735
:1024D80001230793A6E7FFBEFEE70420402142E957
:1024E800020173E70820602142E902016EE710202B
:1024F800802142E9020169E72020A02142E9020186
:1025080064E74020C02142E902015FE78020E02122
:1025180042E902015AE74FF480704FF4807142E9B2
:10252800020153E74FF400704FF4907142E9020141
:102538004CE74FF480604FF4A07142E9020145E78F
:10254800004100300098002400200240B09D002483
:10255800D09D00248C9D00240002B0251C29010870
:10256800062B36D0072B3CD0022B49D0032B49D061
:10257800002B4BD0012B47D0042B49D0052B254BE2
:1025880018BF00237CE7042B25D0052B2BD08BB359
:10259800012B31D0022B31D0032B1F4B18BF002346
:1025A8006EE70323143705EB040B4FF0000A2F44A2
:1025B8008BF8403538460AF1010A00F0ADF99BF86E
:1025C800403514375345F5DC47E70123EAE7022392
:1025D800E8E7124B54E7124B52E7002350E7114B40
:1025E8004EE7114B4CE7114B4AE70DB0BDE8F08FB1
:1025F800FFBEFEE70E4B43E70E4B41E70E4B3FE7AE
:102608000E4B3DE70E4B3BE70E4B39E70E4B37E7DA
:102618000E4B35E70000B84F002090360800900CAC
:102628001000C0102000F0148000501D000180210F
:102638000004002A0008302E001060320040C03A22
:102648000080F03E00005247000021430000844B08
:10265800034B0F29D3F8840598BF00EB410070475E
:1026680000980024244B02689A4200D07047234AFD
:1026780000232348D2F8D81030B5224C41F020016D
:1026880083B0C4F8F0050920C4F8F83504F5BE6530
:10269800C4F8F4054FF48060C2F8D8104FF4006114
:1026A800D2F8D820C4F8000694F8680602F0200290
:1026B800C4F8FC3598420192C4F804164FF400514E
:1026C800C4F810362846C4F81436019B14BF0023FA
:1026D8004FF48073C4F80816C4F80C3604F02CFACA
:1026E80008B1FFBEFEE704F28C53C4F8D855C4F80D
:1026F800283603B030BD00BF002002400044025815
:102708004000024000980024014805F067B800BF67
:10271800F09D00240C4B4FF60B71002203F5A860C6
:102728001980DA6099821A6219855A6399879A64BE
:10273800C3E90122C3E90622C3E90B22C3E9102237
:1027480054339842ECD170470098002484460FC94E
:102758008CE80F009CF800300B2B30D09CF801203F
:102768000F2A2CD8022900B591B041D0032902D0F4
:10277800012900D000210C91DCF80810012902D0B1
:10278800022918BF00210D91DCF80C10022904D091
:10279800032902D0012918BF00210A2B0E910FD856
:1027A8005B4800EB8320CCF810000A2B17D8DFE831
:1027B80003F0A0928476685A4C3E30220900704794
:1027C8000020F0E7534BD3F8E01041F48061C3F8E0
:1027D800E010D3F8E03003F480630A930A9B0123E6
:1027E8000BA993400B9305F04BFB11B05DF804FB6C
:1027F80011210C91C0E7474BD3F8E01041F4007168
:10280800C3F8E010D3F8E03003F400730993099B90
:10281800E5E7404BD3F8E01041F48071C3F8E010CD
:10282800D3F8E03003F480730893089BD7E7394B5B
:10283800D3F8E01041F08001C3F8E010D3F8E0309D
:1028480003F080030793079BC9E7324BD3F8E010E6
:1028580041F04001C3F8E010D3F8E03003F0400342
:102868000693069BBBE72B4BD3F8E01041F0200101
:10287800C3F8E010D3F8E03003F020030593059B7C
:10288800ADE7244BD3F8E01041F01001C3F8E01095
:10289800D3F8E03003F010030493049B9FE71D4B2B
:1028A800D3F8E01041F00801C3F8E010D3F8E030A5
:1028B80003F008030393039B91E7164BD3F8E0104A
:1028C80041F00401C3F8E010D3F8E03003F004034A
:1028D8000293029B83E70F4BD3F8E01041F002010B
:1028E800C3F8E010D3F8E03003F002030193019B32
:1028F80075E7084BD3F8E01041F00101C3F8E01088
:10290800D3F8E03003F001030093009B67E700BFB2
:10291800000002580044025803780B2B2DD042784F
:102928000F2A2AD84168022910B590B03ED0032951
:1029380002D0012900D000210C918168012902D020
:10294800022918BF00210D91C168022904D003296A
:1029580002D0012918BF00210A2B0E910ED85B4C1A
:1029680004EB832404610A2B17D8DFE803F009A0DD
:10297800928476685A4C3E30220070470024F1E772
:10298800534BD3F8E01041F00101C3F8E010D3F83D
:10299800E03003F001030093009B01230BA92046BC
:1029A80093400B9305F06CFA10B010BD11210C91F7
:1029B800C3E7474BD3F8E01041F48061C3F8E01057
:1029C800D3F8E03003F480630A930A9BE5E7404BB1
:1029D800D3F8E01041F40071C3F8E010D3F8E03008
:1029E80003F400730993099BD7E7394BD3F8E01038
:1029F80041F48071C3F8E010D3F8E03003F4807339
:102A08000893089BC9E7324BD3F8E01041F08001E6
:102A1800C3F8E010D3F8E03003F080030793079B76
:102A2800BBE72B4BD3F8E01041F04001C3F8E010AE
:102A3800D3F8E03003F040030693069BADE7244B40
:102A4800D3F8E01041F02001C3F8E010D3F8E030EB
:102A580003F020030593059B9FE71D4BD3F8E01077
:102A680041F01001C3F8E010D3F8E03003F0100390
:102A78000493049B91E7164BD3F8E01041F008014A
:102A8800C3F8E010D3F8E03003F008030393039B86
:102A980083E70F4BD3F8E01041F00401C3F8E010CE
:102AA800D3F8E03003F004030293029B75E7084B68
:102AB800D3F8E01041F00201C3F8E010D3F8E03099
:102AC80003F002030193019B67E700BF000002586F
:102AD8000044025810B592B0ADF804100180C9B294
:102AE800149C0B29C460C0E901233FD090F801C0B1
:102AF800BCF10F0F3AD8022A3FD0032A02D0012A8C
:102B080000D000220E92012B02D0022B18BF002306
:102B1800022C0F932CD0032C2AD0012C28D0002370
:102B28000A29109327D85C4A02EB812202610A29FC
:102B380014D8DFE801F0A39587796B5D4F41332501
:102B48000600564BD3F8E01041F48061C3F8E0105A
:102B5800D3F8E03003F480630C930C9B01230DA998
:102B6800104603FA0CF30D9305F08AF912B010BD64
:102B78000A291094D7D90022D8E711220E92C2E769
:102B8800464BD3F8E01041F40071C3F8E010D3F8D5
:102B9800E03003F400730B930B9BDFE73F4BD3F854
:102BA800E01041F48071C3F8E010D3F8E03003F48A
:102BB80080730A930A9BD1E7384BD3F8E01041F0B1
:102BC8008001C3F8E010D3F8E03003F080030993E4
:102BD800099BC3E7314BD3F8E01041F04001C3F83B
:102BE800E010D3F8E03003F040030893089BB5E702
:102BF8002A4BD3F8E01041F02001C3F8E010D3F8D5
:102C0800E03003F020030793079BA7E7234BD3F893
:102C1800E01041F01001C3F8E010D3F8E03003F001
:102C280010030693069B99E71C4BD3F8E01041F07C
:102C38000801C3F8E010D3F8E03003F00803059367
:102C4800059B8BE7154BD3F8E01041F00401C3F85E
:102C5800E010D3F8E03003F004030493049B7DE70D
:102C68000E4BD3F8E01041F00201C3F8E010D3F89E
:102C7800E03003F002030393039B6FE7074BD3F89D
:102C8800E01041F00101C3F8E010D3F8E03003F0A0
:102C980001030293029B61E70000025800440258B6
:102CA80008B5012143780069994089B205F0EAFA2C
:102CB800003818BF012008BD01230A464178006981
:102CC80003FA01F189B205F0E3BA00BF30B5002379
:102CD80087B0122204460493CDE9022302790A2A16
:102CE80010D83A48012A2568617900EB82200CD176
:102CF800062947D008294AD00A290AD1012D08D126
:102D0800334B48E0056841791846032A23D10C293A
:102D18004ED00422012305928B4001A9019305F0AE
:102D2800AFF8A2790A2A1ED82848012A236800EB9E
:102D38008220E4791AD1072C34D0092C2DD00B2C01
:102D48001CD00422012301A90592A340019305F098
:102D580097F807B030BD072ADBD10429D9D1012D56
:102D680030D00A46D6E723680020E479032AE8D160
:102D78000D2CE6D1032BE4D1164B17E0012BE0D143
:102D8800154B13E0D5B1032DC3D1144B03E0BDB1EE
:102D9800032DBED1124B5A7ABCE7ABB1032BD0D16D
:102DA800104B03E043B1032BCBD10F4B5A7AC9E741
:102DB800032DAED10D4BEEE70D4BF7E70D4BEAE7D0
:102DC8000D4BE8E70D4BE6E70D4BEFE70000025827
:102DD800BC290108E0290108C82901086829010857
:102DE80098290108B029010880290108D429010877
:102DF800742901085C2901088C290108EC290108BB
:102E0800A4290108634A0368934210B58CB028D0FE
:102E1800614A934258D0614A934200F09480604AD4
:102E2800934201D00CB010BD5E4C5F48D4F8E0303E
:102E380043F00203C4F8E030D4F8E03003F00203B2
:102E48000A930A9BFFF742FFD4F8F43043F080035B
:102E5800C4F8F430D4F8F43003F080030B930B9BE0
:102E6800E0E7504C5148D4F8E03043F00203C4F88E
:102E7800E030D4F8E03003F002030193019BFFF740
:102E880025FFD4F8E83000221F2043F40013114630
:102E9800C4F8E830D4F8E83003F400130293029B36
:102EA800D4F8D83043F00103C4F8D830D4F8D83077
:102EB80003F001030393039B03F08CFC1F200CB069
:102EC800BDE8104003F0C4BC364C3948D4F8E030B3
:102ED80043F08003C4F8E030D4F8E03003F0800316
:102EE8000493049BD4F8E03043F00203C4F8E030C4
:102EF800D4F8E03003F002030593059BFFF7E6FEE4
:102F0800D4F8E8300022212043F480031146C4F8A5
:102F1800E830D4F8E83003F480030693069BD4F82D
:102F2800D83043F00103C4F8D830D4F8D83003F0CF
:102F380001030793079B03F04DFC21200CB0BDE86B
:102F4800104003F085BC1B48FFF7C0FE154B00225C
:102F58004820D3F8E840114644F40004C3F8E84098
:102F6800D3F8E84004F400040894089CD3F8D84047
:102F780044F00104C3F8D840D3F8D83003F0010373
:102F88000993099B03F026FC48200CB0BDE81040CB
:102F980003F05EBC0054004000580040005C004054
:102FA800001C00580044025810A10024709E002400
:102FB800509F002430A000242DE9F0431A4B87B01D
:102FC80000254FF010099E46EC46184BFF22E046BC
:102FD80067461A700EF118060EF13004CDE9005557
:102FE800CDE90255ADF80090BCE80F00CDE90455D5
:102FF800AEE80F009CE803000095ADF800908EE85D
:103008000300B8E80F000FC69CE803000095ADF870
:10301800009086E803000FCF0FC49CE8030084E803
:10302800030007B0BDE8F083040000246C9E002470
:1030380010B5EFF3108472B6084B1A78120602D551
:1030480004B962B610BD1878054B40B2C0EBC00099
:1030580003EB4010143004F0C1FBF1E76C9E002430
:10306800709E0024014806F04DBA00BFFC9E002463
:10307800014806F047BA00BFDC9F0024014806F06B
:1030880041BA00BFBCA000242DE9F0430D6885B00B
:10309800404EC5EBC503032D4FEA431706EB431318
:1030A800036041DCCA680C46012A3DD84FEAC508CE
:1030B8004CD020689C466168A8EB0509A2680DF110
:1030C800100EE36806EB4919ACE80F00324B227C7E
:1030D8008CF80020D9F808C00FCB0EE90F000EEBD2
:1030E8008503BCF1010F53F8103CC9F88C3032D07D
:1030F800BCF1020F43D0BCF1000F36D0227C8C37D4
:10310800A8EB050500233744520006EB45160121BC
:103118003846C6F8AC30C6E92521C6E92733C6E9E2
:10312800293305F0B1FE18B1012005B0BDE8F083E0
:103138000146384606F0F2F90028F5D1014638462E
:1031480006F016FA003818BF0120EEE70A7C103A9C
:10315800672AAED9E8E702F0BFFC104B98420CBFD3
:103168000F4B104BC9F89030C8E702F0B5FC0B4B79
:1031780098420CBF0C4B0D4BC9F89030BEE702F0DB
:10318800ABFC064B98420CBF094B0A4BC9F8903070
:10319800B4E700BF709E0024B4280108000E27077A
:1031A8002D0FB0303211D0205F4390608A62E0303A
:1031B800200BA0101A0980102DE9F041D0F80080EA
:1031C80082B00D4617461E4608F18C04204606F0CC
:1031D800A1F92028FAD1D8F80C3073B96D0020462F
:1031E800089C33463A46A9B2009405F0A3FE00387D
:1031F80018BF012002B0BDE8F081089B324639466D
:10320800204606F055F8F2E7094B6FF0F41110224A
:103218005960C3F8E4101A7483F8F020C3F8C41195
:1032280083F8D021C3F8A41283F8B022704700BFF6
:10323800709E002430B5002395B04FF480710622AB
:1032480004460B9306921393CDE90C13CDE90E3384
:10325800CDE9113302F042FC07282BD004F1100508
:1032680041F2883206A9284607F0C0F928B101239F
:10327800184684F85C3015B030BD0222022306A936
:103288002846CDE9002310220123CDE9022300229C
:103298004FF48003CDE9042305224FF08073069292
:1032A8006A460F9341F2883307F00CFB0028DED101
:1032B80015B030BD0323012084F85C3015B030BD53
:1032C80070B50023A4B04FF080724FF480750446A7
:1032D800ADF806300D93CDE910320122CDE90E5339
:1032E800CDE91223CDE91433002943D0F02300F1AE
:1032F800100508AEADF80630C02341F288323146D9
:103308002846089307F072F928B10123184684F873
:103318005C3024B070BD41F288320DF106012846B8
:1033280007F0CEF903460028EFD105224FF480714B
:103338001E93284616924FF080721B9321931F927A
:1033480002AA9FED1F7BCDE91C13CDE922338DED39
:10335800027B9FED1D7B41F2883316A98DED047B1E
:103368009FED1B7B8DED067B07F0ACFA0028CCD1D6
:1033780024B070BD00F1100508AE612341F2883217
:1033880031462846089307F031F90028BDD141F2AB
:1033980088320DF10601284607F010FA0028B4D14A
:1033A800BDF80630204623F0780343F04003ADF81B
:1033B8000630FFF73FFF00289ED0A6E7AFF3008056
:1033C80000000000010000001000000001000000E3
:1033D80000000000000040002DE9F04F00234FF4EA
:1033E800807501264FF0807804462DED028BABB036
:1033F8008DF8073013932193299314950E96CDF8E1
:103408005C80CDE91533CDE91863CDE91A33CDE9F0
:103418002253CDE92433CDE9273306231C9302F048
:103428005DFB072808D004F1100741F288321CA977
:10343800384607F0DBF840B10123184684F85C30C1
:103448002BB0BDEC028BBDE8F08F4FF0020A4FF0B5
:10345800020B4FF0050941F2883308AA1CA9384627
:10346800CDF89480CDF870909FED2F8BCDE908AB07
:103478004FF0000A4FF4800B8DED0A8BCDE90CABB1
:1034880007F020FA0028D7D141F2883238460EA931
:1034980007F0ACF80028CFD1402341F288320DF173
:1034A800070138468DF8073007F00AF90028C3D11C
:1034B80041F288330EA902AA3846CDF83890CDF8E3
:1034C8005C809FED1B7BCDE906AB8DED027B9FED0C
:1034D8001A7B8DED047B07F0F5F903460028ABD184
:1034E800CDF870904FF00109CDF894804FF00008A6
:1034F800219308AA29931CA938462295CDE923339C
:10350800CDE9273341F288338DED0A8BCDE90CAB39
:10351800CDE9088907F0D6F9002891D0304684F81B
:103528005C608DE7AFF30080100000000100000030
:10353800400000004300000000800000010000007F
:103548002DE9F04F00234FF4807601254FF0807865
:1035580004462DED028BABB0CDE9153313932193BF
:10356800299314960E95CDF85C80CDE91853CDE9D2
:103578001A33CDE92263CDE92433CDE92733062375
:103588001C9302F0ABFA072808D004F1100741F2A7
:1035980088321CA9384607F029F840B1012318469B
:1035A80084F85C302BB0BDEC028BBDE8F08F4FF097
:1035B800020A4FF0020B4FF0050941F2883308AABE
:1035C8001CA93846CDF89480CDF870909FED308BCB
:1035D800CDE908AB4FF0000A4FF4800B8DED0A8B54
:1035E800CDE90CAB07F06EF90028D7D141F288324B
:1035F80038460EA906F0FAFF0028CFD1402341F241
:1036080088320DF1070138468DF8073007F058F871
:103618000028C3D19DF8073008AA0C90FF20089312
:103628004FF400430EA90B95CDF83890CDF85C8087
:10363800CDE909034FF4800338460D9341F28833EE
:1036480007F040F903460028A8D1002221932993C6
:103658001CA938462296CDF87090CDF89480CDE913
:103668002333CDE927330123CDE9022341F28833FF
:1036780002AA8DED048BCDE906AB07F023F90028EB
:1036880090D0284684F85C508CE700BFAFF30080E8
:10369800100000000100000070B50122AAB0044625
:1036A8000D465F48C02104F0F3FD00265D4B0696E9
:1036B8005B4895FAA5F5CDE90466D3F8E02042F019
:1036C8002002C3F8E020C022D3F8E03003F0200342
:1036D80001930123019902A9CDE9022304F0D0FB4B
:1036E800142002F0F9FB3246C0214D4804F0D0FD09
:1036F800142002F0F1FB0122C021494804F0C8FD62
:10370800142002F0E9FB0123474AE6612261C4E97B
:103718000533002D77D0B5FA85F1013900234FF430
:10372800807604F11005C4E908162846C4E90B336D
:1037380006F0EEFE30B101231D4684F85C302846C1
:103748002AB070BD66231690179041F28832139004
:103758000EA91B900E93CDE91460CDE919002846F7
:1037680006F044FF0028E6D199230EA941F28832D9
:1037780028460E9306F03AFF0028DCD105230121E4
:10378800249008AA219027901C934FF08073CDE9CC
:103798002260CDE928001020259341F28833CDE935
:1037A8000A019FED1D7B00204FF48001CDE90C013B
:1037B8001CA928468DED087B07F084F80028BAD1AB
:1037C8002046FFF7BDFE0028B5D1284606F0FCFECE
:1037D80005460028AFD123790A2B18D9637901212E
:1037E800994004F087FCA3790A2B0ED80F4800EB08
:1037F80083200126E17906FA01F104F07BFC2666B4
:1038080084F864609BE71F2188E70020F1E70748F8
:1038180000EB8320E2E700BF000000000100000089
:103828000014025800440258005000520000025888
:103838002DE9F041684CA2B00D46046002F04EF943
:1038480007284BD028682346AA68696807C3AA894D
:10385800184620F8042B267B677B06F0B5FE002867
:1038680034D1012E94F8643014BF4FF480154FF40E
:1038780000052366002B39D0584B95FAA5F523612E
:103888000123C4E905330023E361002D6ED0B5FAA6
:1038980085F1013900234FF480785148C4E90818AC
:1038A800C4E90B3306F034FE80B966230B901390FD
:1038B80041F2883206A90693CDE90C80CDE90E00C5
:1038C800CDE91100464806F091FEA0B101231D463E
:1038D80084F85C30284622B0BDE8F0810125032336
:1038E800284684F85C3022B0BDE8F081294620469D
:1038F800FFF7D2FEC0E7992341F2883206A938487B
:10390800069306F073FE0028E0D105231C90199059
:103918006A4614934FF08073219014A91D9341F2C5
:1039280088339FED277BCDE91A80CDE91F008DED07
:10393800007B9FED257B2A488DED027B9FED247B44
:103948008DED047B06F0BEFF0028BFD1314622482A
:10395800FFF7B6FC0028B9D11F48FFF73DFD054623
:103968000028B3D127B102232366B3E71F2191E7CB
:10397800EB2300260027189014934FF440631F9000
:1039880006AA1B934FF40053209014A917934FF4E1
:10399800404313481C93A023CDF868801693062350
:1039A80019934FF0805321934FF04073CDE9066788
:1039B8001D9306F0FFFF0028D5D087E7AFF30080FE
:1039C80000000000010000001000000001000000DD
:1039D8000000000000004000F0A100240050005248
:1039E80000A200245E4B02682DE9F0419A428CB097
:1039F8004FF00004CDE90744CDE909440B9402D007
:103A08000CB0BDE8F081574B574DD3F8D420574F31
:103A180042F48042564EDFF85C81C3F8D420D3F8D4
:103A2800D42002F480420092009ADA6F42F4804275
:103A3800DA67DA6F22F48042DA67D3F8E02042F0DE
:103A48004002C3F8E020D3F8E02002F040020192DF
:103A5800019AD3F8E02042F02002C3F8E020D3F81E
:103A6800E02002F020020292029AD3F8E02042F00D
:103A78001002C3F8E020D3F8E02002F0100203920D
:103A8800039AD3F8E02042F00202C3F8E020D3F80A
:103A9800E03003F002030493049B22E014F0FC02DC
:103AA80052D103F1200155F8211008780A2839D895
:103AB80091F801C00121099207EB802201FA0CF16B
:103AC80007910221CDF81480089103210A910CA9CD
:103AD8000B4413F81C3C07A9104601340B9304F05F
:103AE800CFF92A6EE3B2002AD8D0052B2CD803F1DF
:103AF8001A0255F822100A780A2A18D94978012298
:103B08008A40022107920022CDE9081203210A9176
:103B18000CA90B4496E803000590ADF8181013F8AB
:103B28001C3CD8E74878012109928140C8E74878C9
:103B3800012107EB82228140022007910021CDE973
:103B4800080103210A91E3E700225C20114602F0F4
:103B580041FE5C2002F07CFE0CB0BDE8F08100BFA5
:103B68000050005200440258F0A1002400000258FE
:103B7800F82901080A0A090A0268F8B5194B9A4295
:103B880000D0F8BD184A0024184F0125D2F8D430C7
:103B9800174E23F48043C2F8D43011E014F0FC0F20
:103BA8001BD157F821301A780020597801340A2A95
:103BB80005FA01F198BF06EB822089B204F09AFA5F
:103BC800E3B23A6E03F12001002AE7D0052B03F196
:103BD8001A0202D857F82230E5E75C20BDE8F84021
:103BE80002F044BE0050005200440258F0A10024E4
:103BF80000000258014806F069BF00BF00A2002477
:103C08000E4B6FF0F4120021981C30B41C1D9D1D42
:103C18009A605D671C67C3E90022C3E9181103F1C4
:103C28000A0203F1080130BCC3E91A30C3E91E12C5
:103C3800C3E92030C3E92212704700BFF0A1002475
:103C480038B5036871B9026A00F1280500F5AC744B
:103C5800012A0CBF002140218BBB1D4B5722C0F805
:103C680058310DE0426A00F1C00500F5E874012AF8
:103C78000CBF00214021EBB1164B5A22C0F8D031BD
:103C880000232046C4E901214FF480524FF480619B
:103C9800636262614FF48042C4E903314FF4807378
:103CA800C4E906234FF40033236202F045FF58B1FC
:103CB800FFBEFEE7084B5822C0F8D031E0E7074BBB
:103CC8005922C0F85831DBE7C5E92044A56338BD5F
:103CD80010000240700002402800024058000240D4
:103CE8002DE9F043C28889B081468388ADF8002069
:103CF8000089B9F80A10B9F80C20ADF80230D9F8E3
:103D08001830ADF80400ADF80610ADF80820002B07
:103D18003FD0D9F81C70B7FA87F77F09012502232D
:103D28006C460DF10A06DFF870800695CDE904357A
:103D380099F8042020788242627818D0D9F80010C7
:103D4800F9B1012902D1F8B10A2107910A2805FA27
:103D580002F203A994BF08EB80200020039204F02C
:103D68008FF80234A642E3D109B0BDE8F08399F890
:103D780005109142E2D1002FF3D0D9F800100029A4
:103D8800DFD106210791E1E7022A0CBF08210A21A9
:103D9800DBE70127C2E700BF00000258534A036867
:103DA800934230B505468BB055D02032934252D05D
:103DB8004F4A934204D02032934201D00BB030BD19
:103DC8004C4C4D48D4F8E03043F00103C4F8E030DF
:103DD800D4F8E03003F001030593059BD4F8E030F4
:103DE80043F00803C4F8E030D4F8E03003F00803E7
:103DF8000693069BD4F8E03043F04003C4F8E03063
:103E0800D4F8E03003F040030793079BD4F8F03070
:103E180043F40003C4F8F030D4F8F03003F400039E
:103E28000893089BFFF75CFFD4F8D830296843F063
:103E380001032F4A3048C4F8D830891AD4F8D8304A
:103E480018BF012103F001030993099B0BB0BDE8DA
:103E58003040FFF7F5BE274C2848D4F8E03043F04F
:103E68000103C4F8E030D4F8E03003F00103009314
:103E7800009BD4F8E03043F01003C4F8E030D4F8E5
:103E8800E03003F010030193019BD4F8E03043F0D5
:103E98004003C4F8E030D4F8E03003F04003029364
:103EA800029BD4F8F03043F48003C4F8F030D4F81F
:103EB800F03003F480030393039BFFF711FFD4F85A
:103EC800D830296843F00103084A0C48C4F8D830B0
:103ED800891AD4F8D83018BF012103F001030493DC
:103EE800049B0BB0BDE83040FFF7AABE0458014060
:103EF800045C014000440258DCA4002480A2002491
:103F0800014803F06BBC00BFD8A30024014803F0AC
:103F180065BC00BF50A40024014803F05FBC00BF8B
:103F280034A60024014803F059BC00BFACA6002405
:103F38001A4A0368934210B40BD02032934208D037
:103F4800174A934216D02032934213D05DF8044B9F
:103F58007047144B0022D3F85442C3F85822002C5F
:103F6800F4D0D3F84802D3E9931223465DF8044B02
:103F7800520818470B4B0022D3F8B044C3F8B424B6
:103F8800002CE3D0D3F8AC24D3F8A814D3F8A404B5
:103F9800520823465DF8044B184700BF04580140F7
:103FA800045C014080A20024184A0368934210B4BC
:103FB8000BD02032934208D0154A934217D02032B2
:103FC800934214D05DF8044B7047124BD3E9942404
:103FD8005208C3F85822002CF4D0D3E992012346A2
:103FE80001EB820100EB82005DF8044B1847094B96
:103FF800D3F8AC24D3F8B0445208C3F8B424002C46
:10400800E0D0D3F8A814D3F8A404E8E70458014092
:10401800045C014080A200242DE9F0470C684FF4AD
:1040280017767B4F86B004FB06F6012C07EB0608D3
:10403800C0F800807FDC00230D468E46C446C8F8D1
:104048005032C8E992336EA3D3E900236EA1D1E9B7
:104058000001CDE9022306AB03EB8403CDE904019B
:1040680053F810AC53F8089CBEE80F00ACE80F00FA
:10407800BEE80F00ACE80F009EE80300C8F828A0CF
:10408800C8F8C0908CE803002B69042B0CD8DFE833
:1040980003F0818B959F03004FF417735D4A03FB70
:1040A80004739A64C3F8E020AB69012B5ED0002B3F
:1040B80040F0A3802A6A111E4FF4177218BF01211D
:1040C80002FB0472C2E90B13EA69002A3AD16B6A4F
:1040D800191E4FF4177318BF012103FB0473C3E9BA
:1040E8003112696901293FD0022928D1032500210D
:1040F8004FF4177306F128002A46019103FB047355
:10410800002438445C645C63DC65C3F8DC40C3F8B5
:10411800CC40C3F8F440C3E90F44C3E91544C3E9EC
:104128003544C3E93B44022309F0D6F80199002835
:1041380058D0FFBEFEE7012006B0BDE8F087002595
:104148002946D5E76A6A83F00103002A4FF41772FB
:1041580002FB0472C2F8C8300CBF02230323C2F862
:10416800C43069690129BFD10225C1E7EB69A3F110
:104178000103B3FA83F35B092A6A002A4FF4177222
:1041880008BF022102FB047218BF0321D16201217A
:10419800116399E74FF417734FF4FA5203FB047352
:1041A8009A64C3F8E0207FE74FF417734FF47A520C
:1041B80003FB04739A64C3F8E02075E74FF41773A0
:1041C8004FF4FA4203FB04739A64C3F8E0206BE7E8
:1041D8004FF417734BF6803203FB04739A64C3F8E9
:1041E800E02061E706F1C00002232A46384409F0BE
:1041F80073F80028A0D0FFBEFEE70023BCE700BF8D
:1042080004580140045C014024580140245C0140EA
:1042180080A200240077010000687047D0B50468C8
:1042280082B016460F46C4F85032C4E99212069A74
:10423800C4F85422D4E90620012829D1012A18D02B
:10424800626A04F1C000012A9AB23ED03146019256
:1042580009F0FCF8019AC0B9236A04F12800012B7F
:104268002AD0314609F0F2F8003818BF012002B010
:10427800D0BD626A04F1C000012A9AB2E6D1019267
:1042880009F076F9019A0028E6D0012002B0D0BDE5
:10429800012AD5D1226A04F12800012A9AB20FD046
:1042A8003146019209F0D2F8019A0028EDD1636AEB
:1042B80004F1C000012BD4D1394609F059F9D3E7EC
:1042C800019209F055F9019AEFE73946019209F090
:1042D8004FF9019AD7E700BF03681B69042B05D87B
:1042E800044A02EB830393ED000A70479FED020A2C
:1042F800704700BF002A010800803B470368D3F8D5
:1043080058027047064B6FF0F4124FF60B71C3E971
:1043180001229981A3F86812C3E99822704700BF67
:1043280080A200241F4BC1680268F0B5D3F88C50F6
:1043380083B00369ADB24D1BA2B1AB4212D00446A3
:10434800866811D2F018E91ACDE9001001F052F987
:104358000023DDE90010D4E90062B047E368256175
:10436800AB421BD003B0F0BDF018C91ACDE900016B
:1043780001F040F90023DDE90001D4E90072B847F3
:104388003046294601F036F900233046626829464E
:104398002668B047E3682561AB42E3D10023236177
:1043A80003B0F0BD000002402DE9F84F04460F4667
:1043B80090461E4600F13405284609F053FD202892
:1043C800FAD14FF480630020C4F8D830C4F85031D3
:1043D8004FF44033C4F8D400C4F8E830C4F860316E
:1043E8004E4BC4F8E400C4F8C83003F57A73C4F837
:1043F800EC00C4F840314023C4F8D000C4F8483178
:10440800E369C4F84C01C4F85C01C4F86401C4E968
:104418003700C4E95500072B0BD8DFE803F06153D8
:104428005A373E454C045123C4F8CC305223C4F8C3
:10443800443104F5A079484602F07EFB08B1FFBE7E
:10444800FEE7C4F8B090C4F87851EFF3108972B65B
:10445800DFF8D0B094F91C30DFF8CCA08BF800302E
:104468000A9B2F4CCAF800300B9B23600EB11846EC
:10447800B0471FFA88F23946284609F0EFF9B0BB71
:10448800B9F1000F00D162B6BDE8F88F3F23C4F838
:10449800CC304023C4F84431CBE74123C4F8CC30B6
:1044A8004223C4F84431C4E74723C4F8CC30482336
:1044B800C4F84431BDE74F23C4F8CC305023C4F8C6
:1044C8004431B6E72B23C4F8CC302C23C4F844314C
:1044D800AFE72D23C4F8CC302E23C4F84431A8E725
:1044E8002923C4F8CC302A23C4F84431A1E7FF2398
:1044F8008BF800300023CAF8003023600A9B3BB1D8
:104508000B98012198470120B9F1000FBCD1BAE7F7
:104518000120B9F1000FB7D1B5E700BF880002400C
:10452800B8B60024B4B60024B0B600242DE9F84F7C
:1045380004460F4690461E4600F13405284609F009
:1045480091FC2028FAD14FF480630020C4F8D830B9
:10455800C4F850314FF44033C4F8D400C4F8E830FC
:10456800C4F860314E4BC4F8E400C4F8C83003F511
:104578007A73C4F8EC00C4F840314023C4F8D00082
:10458800C4F84831E369C4F84C01C4F85C01C4F8C4
:104598006401C4E93700C4E95500072B0BD8DFE8EC
:1045A80003F061535A373E454C045123C4F8CC30CC
:1045B8005223C4F8443104F1C809484602F0BCFA51
:1045C80008B1FFBEFEE7C4F8B490C4F80051EFF399
:1045D800108972B6DFF8D0B094F91C30DFF8CCA09F
:1045E8008BF800300A9B2F4CCAF800300B9B2360D5
:1045F8000EB11846B0471FFA88F2394628460AF025
:10460800DFF8B0BBB9F1000F00D162B6BDE8F88F92
:104618003F23C4F8CC304023C4F84431CBE74123CE
:10462800C4F8CC304223C4F84431C4E74723C4F863
:10463800CC304823C4F84431BDE74F23C4F8CC300C
:104648005023C4F84431B6E72B23C4F8CC302C23CC
:10465800C4F84431AFE72D23C4F8CC302E23C4F876
:104668004431A8E72923C4F8CC302A23C4F84431BC
:10467800A1E7FF238BF800300023CAF8003023603D
:104688000A9B3BB10B98012198470120B9F1000F13
:10469800BCD1BAE70120B9F1000FB7D1B5E700BF27
:1046A80088000240B8B60024B4B60024B0B600248E
:1046B8002DE9F0410D4682B0EFF3108772B600295C
:1046C80048D1FF23254A264C237013682BB10020BC
:1046D80029461060234A1068984723781B0625D579
:1046E800DFF888800025204E444605E001351C345B
:1046F80006F5DC76092D19D0A369012B1BD0002BF8
:10470800F4D1216830460029F0D063690193236908
:104718000093E3682289FFF709FF0028E6D1C5EB7B
:10472800C50508EB850348F82500586007B962B647
:1047380002B0BDE8F08161680029D7D063693046CE
:10474800019323690093E3682289FFF72DFE00286F
:10475800CCD1E4E709F0AEFFB3E700BFB0B6002460
:10476800B4B60024B8B6002438A700244C000024AE
:10477800F0B5002387B0022204460493CDE9022352
:10478800C369007E5D000B2821D1A07E0B2802D1D1
:10479800002007B0F0BD454A6B1C454952F823304C
:1047A8004D780A781978E47E8A424CD088425AD0EB
:1047B800D978DE1C91424ED088426DD099799E1DE1
:1047C8008A4265D088426CD0012007B0F0BD374BD3
:1047D800374953F825300A7891F801E0197894F8A8
:1047E80019C08A4222D0884225D0D978DE1C8A4254
:1047F80025D0884233D099799E1D8A4227D0884295
:10480800E2D1DB796345DFD133469B780A280593EB
:1048180008D90020012301A903FA0CF3019303F03E
:104828002FFBB2E7234B03EB8020F3E75E78764556
:10483800DBD08842D9D159786145D6D1E5E71F79CF
:104848007745D6D1D7E75E78AE42AFD1B0E7DA790F
:104858007245D4D1B8E71F79AF42ADD1AEE7197927
:104868006145C8D1D0E75978A142A1D19B780A28DF
:10487800059309D90020012301A9A340019303F05E
:10488800FFFA002007B0F0BD0A4B03EB8020F2E7E7
:10489800DA79AA4296D197E71979A1428ED133469F
:1048A800E4E7DB79A3428FD13346DFE764010024D4
:1048B8006001002400000258B34A0368934270B5AF
:1048C800A4B000F03D82A2F54C42934200F03A8237
:1048D80002F58062934200F0378202F580629342CB
:1048E80000F0348202F58062934200F0338202F5D0
:1048F8004442934200F02C82A2F51C42934200F0FD
:104908002B8202F58062934200F028829F4A9342EC
:1049180040F0268208259E4C4FF4DC7000FB0540D1
:10492800837E0A2B19D8DFE813F0B701C501D3013C
:10493800E101EF01FD017F018D019B01A9010B0040
:10494800944BD3F8E02042F48062C3F8E020D3F817
:10495800E03003F480631E931E9B037E0A2B19D854
:10496800DFE813F0380146015401CB00D900E70015
:10497800F50003011C012A010B00864BD3F8E02047
:1049880042F48062C3F8E020D3F8E03003F4806397
:104998001393139B4FF4DC7303FB0543DB69082B6C
:1049A80013D8DFE803F03A48566472808E9C0500FD
:1049B800784BD3F8F42042F00802C3F8F420D3F877
:1049C800F43003F008030893089BFFF7D1FE012891
:1049D80001D1FFBEFEE74FF4DC7324AA6E4E0DF141
:1049E8007C0C03FB0544E36902EB43050FCEACE8FE
:1049F8000F0033680022ACF80030114635F9140C6A
:104A080001F0E8FEE36924AA02EB430333F9140C2E
:104A180024B0BDE8704001F01BBF5E4BD3F8F02016
:104A280042F01002C3F8F020D3F8F03003F010037E
:104A38000093009BC9E7574BD3F8E82042F40032B3
:104A4800C3F8E820D3F8E83003F400330193019B5E
:104A5800BBE7504BD3F8E82042F48022C3F8E820A3
:104A6800D3F8E83003F480230293029BADE7494B67
:104A7800D3F8E82042F40022C3F8E820D3F8E8305D
:104A880003F400230393039B9FE7424BD3F8E820EA
:104A980042F48012C3F8E820D3F8E83003F4801316
:104AA8000493049B91E73B4BD3F8F02042F020029B
:104AB800C3F8F020D3F8F03003F020030593059BEA
:104AC80083E7344BD3F8E82042F08042C3F8E8206B
:104AD800D3F8E83003F080430693069B75E72D4B27
:104AE800D3F8E82042F00042C3F8E820D3F8E830D1
:104AF80003F000430793079B67E7264BD3F8E020B2
:104B080042F00802C3F8E020D3F8E03003F00803CD
:104B18000C930C9B3EE71F4BD3F8E02042F01002A9
:104B2800C3F8E020D3F8E03003F010030D930D9B99
:104B380030E7184BD3F8E02042F02002C3F8E02019
:104B4800D3F8E03003F020030E930E9B22E7114BBD
:104B5800D3F8E02042F04002C3F8E020D3F8E03078
:104B680003F040030F930F9B14E70A4BD3F8E020A0
:104B780042F08002C3F8E020D3F8E03003F080036D
:104B88001093109B06E700BF00100140000C00586E
:104B980038A7002400440258C4280108724BD3F8EF
:104BA800E02042F48072C3F8E020D3F8E03003F448
:104BB80080731193119BEDE66B4BD3F8E02042F420
:104BC8000072C3F8E020D3F8E03003F400731293C6
:104BD800129BDFE6644BD3F8E02042F00102C3F8F1
:104BE800E020D3F8E03003F001030993099BD1E6F4
:104BF8005D4BD3F8E02042F00202C3F8E020D3F87E
:104C0800E03003F002030A930A9BC3E6564BD3F83D
:104C1800E02042F00402C3F8E020D3F8E03003F0CB
:104C280004030B930B9BB5E64F4BD3F8E02042F0FF
:104C38004002C3F8E020D3F8E03003F040031A93B1
:104C48001A9B8AE6484BD3F8E02042F08002C3F86A
:104C5800E020D3F8E03003F080031B931B9B7CE635
:104C6800414BD3F8E02042F48072C3F8E020D3F837
:104C7800E03003F480731C931C9B6EE63A4BD3F828
:104C8800E02042F40072C3F8E020D3F8E03003F4E7
:104C980000731D931D9B60E6334BD3F8E02042F070
:104CA8000102C3F8E020D3F8E03003F001031493C5
:104CB800149B52E62C4BD3F8E02042F00202C3F8D2
:104CC800E020D3F8E03003F002031593159B44E687
:104CD800254BD3F8E02042F00402C3F8E020D3F8D3
:104CE800E03003F004031693169B36E61E4BD3F808
:104CF800E02042F00802C3F8E020D3F8E03003F0E7
:104D080008031793179B28E6174BD3F8E02042F0C7
:104D18001002C3F8E020D3F8E03003F01003189332
:104D2800189B1AE6104BD3F8E02042F02002C3F893
:104D3800E020D3F8E03003F020031993199B0CE628
:104D48000025E8E50125E6E50225E4E50325E2E599
:104D58000525E0E50425DEE50625DCE50725DAE599
:104D680000239B7EFFDE00BF004402582DE9F04F70
:104D780091B0002301223F490DF1240A09938B4683
:104D880001F11C09CAF8143001F13808CDF800A067
:104D980001F15407CDF804A001F17006CDF808A080
:104DA80001F18C05CDF80CA001F1A804CDF810A0F4
:104DB80001F1C40ECDF814A001F1E00CCAE90133E9
:104DC800CAE903330F92FF222B4BCDE906AA1A70CA
:104DD800BAE80F00ABE80F009AE80700009B8BE8E1
:104DE80007009B46BBE80F00A9E80F009AE80700F8
:104DF800019B89E807009946B9E80F00A8E80F0069
:104E08009AE80700029B88E807009846B8E80F0070
:104E18000FC79AE80700039B87E807001F460FCFD4
:104E28000FC69AE80700049B86E807001E460FCEC7
:104E38000FC59AE80700059B85E807001D460FCDBA
:104E48000FC49AE80700069B84E807001C460FCCAD
:104E5800AEE80F00079B9AE807001C468EE807009B
:104E68000FCCACE80F009AE807008CE8070011B0F7
:104E7800BDE8F08F4C000024B4B6002410B5094CEE
:104E880004F1340008F0D0FD237D1BB1636BDB69AE
:104E9800DB0600D410BD2046FFF744FA636B1022EE
:104EA8001A6210BD38A7002410B50B4C04F5F67033
:104EB80008F0BAFD94F8CC3123B1D4F8EC31DB69B1
:104EC800DB0600D410BD04F5DC70FFF72BFAD4F82C
:104ED800EC3110221A6210BD38A7002410B50B4C13
:104EE80004F5697008F0A0FD94F8843323B1D4F870
:104EF800A433DB69DB0600D410BD04F55C70FFF752
:104F080011FAD4F8A43310221A6210BD38A700246D
:104F180010B50B4C04F25C5008F086FD94F83C3553
:104F280023B1D4F85C35DB69DB0600D410BD04F589
:104F3800A560FFF7F7F9D4F85C3510221A6210BDA6
:104F480038A7002410B50B4C04F2147008F06CFD5F
:104F580094F8F43623B1D4F81437DB69DB0600D4AF
:104F680010BD04F5DC60FFF7DDF9D4F81437102222
:104F78001A6210BD38A7002410B50B4C04F6CC00FB
:104F880008F052FD94F8AC3823B1D4F8CC38DB697A
:104F9800DB0600D410BD04F69800FFF7C3F9D4F877
:104FA800CC3810221A6210BD38A7002410B50B4C5B
:104FB80004F6842008F038FD94F8643A23B1D4F854
:104FC800843ADB69DB0600D410BD04F52560FFF7E1
:104FD800A9F9D4F8843A10221A6210BD38A700241F
:104FE80010B50B4C04F63C4008F01EFD94F81C3C30
:104FF80023B1D4F83C3CDB69DB0600D410BD04F6D1
:105008000840FFF78FF9D4F83C3C10221A6210BD13
:1050180038A7002410B50B4C04F6F45008F004FD32
:1050280094F8D43D23B1D4F8F43DDB69DB0600D411
:1050380010BD04F55C60FFF775F9D4F8F43D102253
:105048001A6210BD38A7002410B5EFF3108472B6A9
:10505800084B1A78120602D504B962B610BD1B783F
:105068004FF4DC7204485BB202FB0300C83002F064
:10507800B5FBF1E7B4B6002438A7002410B5EFF368
:10508800108472B6094B1A78120602D504B962B6B2
:1050980010BD1B784FF4DC7205485BB202FB0300BD
:1050A80000F5A07002F09AFBF0E700BFB4B6002448
:1050B80038A700240021FFF7FBBA00BF214A036884
:1050C80093422BD0A2F54C42934229D002F580623C
:1050D800934227D002F58062934225D002F5806280
:1050E800934223D002F54442934221D0A2F51C42B8
:1050F80093421FD002F5806293421DD0124A934218
:105108001CD108224FF4DC71104B01FB0233197DCE
:1051180011B11846FFF706B9FFF7CABA0022F1E73E
:105128000122EFE70222EDE70322EBE70422E9E799
:105138000522E7E70622E5E70722E3E700231B7DD0
:10514800FFDE00BF00100140000C005838A7002403
:10515800204A0368934229D0A2F54C42934227D0B3
:1051680002F58062934225D002F58062934223D0F3
:1051780002F58062934221D002F5444293421FD047
:10518800A2F51C4293421DD002F5806293421BD0C7
:10519800114A93421AD1082310484FF4DC7202FBDB
:1051A8000300037D03B97047FFF7BCB80023F3E79A
:1051B8000123F1E70223EFE70323EDE70423EBE7FD
:1051C8000523E9E70623E7E70723E5E700231B7D37
:1051D800FFDE00BF00100140000C005838A7002473
:1051E800214A036893422BD0A2F54C42934229D01E
:1051F80002F58062934227D002F58062934225D05F
:1052080002F58062934223D002F54442934221D0B2
:10521800A2F51C4293421FD002F5806293421DD032
:10522800124A93421CD108224FF4DC71104B4FF004
:10523800000C01FB0233012183F814C0FFF738BAD0
:105248000022F1E70122EFE70222EDE70322EBE774
:105258000422E9E70522E7E70622E5E70722E3E774
:1052680000231B75FFDE00BF00100140000C005832
:1052780038A700242DE9F0414F684FF4DC76DFF8B9
:10528800C0808E4607FB06F60C46082F08EB06057D
:10529800056005F1180CBEE80F00ACE80F009EE8A9
:1052A80007008CE8070002D86B6A022B02D901209C
:1052B800BDE8F0812A6A032AF9D8A96A0229F6D832
:1052C800E86A0228F3D80131DFF878C0343689005B
:1052D8005CF8277046446F63A469A9641549AC63F8
:1052E80051F823306B64144B53F82230134A2B6463
:1052F800002352F8201001223046EB65E963C5E926
:105308001333C5E9153209F0D5F90028CFD1014684
:10531800304609F09DFA0028C9D10146304609F007
:10532800D9FA0028C3D1304609F074FA0028BED152
:105338002875BDE7382A0108442A0108542A0108BB
:1053480038A70024142A0108594B0122002147F6E6
:10535800122030B46FF0F4141A6259629C61C3F8D9
:10536800D041C3F88843C3F84045C3F84825C3F87B
:105378004C15C3F85425C3F85805C3F8F846C3F8C4
:105388000027C3F80417C3F80C27C3F81007C3F89D
:10539800B048C3F8B828C3F8BC18C3F8C428C3F881
:1053A800C808C3F8684A434DC3E90B20C3E976210E
:1053B800C3E97920C3E9E421C3E9E720C3F8702AE7
:1053C800C3F8204CC3F8D84D3B4CC3F8741AC3F843
:1053D8007C2AC3F8800AC3F8282CC3F82C1CC3F80D
:1053E800342CC3F8380CC3F8E02DC3F8E41DC3F817
:1053F800EC2D2188A278C3F8F00D304B3048A3F883
:1054080003105A71D9801A722E4B2A72E980A3F8B8
:1054180003102D4D5A71D9801A722C4BE9802A72CB
:10542800A0F803104271C1800272A3F803105A71E8
:10543800D98020681A72040C254B264DA3F8031056
:105448005A71D9801A7218809C70234BE980A3F88E
:1054580003105A71D9801A72204B2A72A3F80310CC
:105468005A71D9801A721E4BA3F803105A71D98049
:105478001A721C4B18809C70A3F803105A71D980BB
:105488001A72194B18809C701848A3F803105A71A7
:10549800D9801A72164BA0F803104271C1800272AB
:1054A800A3F803105A71D9801A7230BC704700BF34
:1054B80038A70024000200246001002418020024F8
:1054C8000C02002430020024F401002424020024E9
:1054D800D4B60024D00100243C020024E8010024B2
:1054E800DC010024C8B60024BCB600245401002402
:1054F800480100243E4B00220B20114610B5D3F87A
:10550800D84082B044F00104C3F8D840D3F8D8405A
:1055180004F001040094009CD3F8D84044F002043D
:10552800C3F8D840D3F8D83003F002030193019BA5
:1055380001F050F90B2001F08BF900220C201146E4
:1055480001F048F90C2001F083F900220D201146E2
:1055580001F040F90D2001F07BF900220E201146E0
:1055680001F038F90E2001F073F900220F201146DE
:1055780001F030F90F2001F06BF9002210201146DC
:1055880001F028F9102001F063F900223C201146AF
:1055980001F020F93C2001F05BF9002211201146AE
:1055A80001F018F9112001F053F9002238201146B2
:1055B80001F010F9382001F04BF90022392011468A
:1055C80001F008F9392001F043F900223A20114688
:1055D80001F000F93A2001F03BF900223B20114686
:1055E80001F0F8F83B2002B0BDE8104001F030B9F6
:1055F80000440258203100290FDD20F01F00BFF3BE
:105608004F8F064A0144C2F85C0220300B1A002B67
:10561800F9DCBFF34F8FBFF36F8F704700ED00E0E9
:10562800704700BF08B500F045FCBDE8084001F030
:1056380099B900BF064808B503680BB102F02CFE03
:10564800044803681BB1BDE8084003F0BDBF08BDAE
:10565800F8BB0024E8B60024064808B503680BB177
:1056680002F01AFE044803681BB1BDE8084003F0C5
:10567800ABBF08BDF8BB0024E8B60024064808B54F
:1056880003680BB102F008FE044803681BB1BDE8CB
:10569800084003F099BF08BDF8BB0024E8B6002411
:1056A800364BDA6A520062D59A6A9A6A9A6A9B6A93
:1056B800180600D500BE314B9B6A990600D500BE7E
:1056C8002E4B9B6ADA0600D500BE2C4B9B6A1B0743
:1056D80000D500BE294B9B6A980700D500BE274B12
:1056E8009B6AD90700D500BE244B9B6A1A0400D5D3
:1056F80000BE224B9B6A9B0400D500BE1F4B9B6AD1
:10570800D80400D500BE1D4B9B6A190500D500BE04
:105718001A4B9B6A5A0500D500BE184B9B6A9B051D
:1057280000D500BE154B9B6AD80500D500BE134BAB
:105738009B6A990100D500BE104B9B6ADA0100D51F
:1057480000BE0E4B9B6A1B0300D500BE0B4B9B6A29
:10575800580300D500BE094B9B6A990300D500BECB
:10576800064B9B6ADA0306D400BE00BEFEE7DB6A7E
:105778009B07FAD5F8E700BEF6E700BF00ED00E0AA
:1057880000F0A4BB00F0A8BB0A4B9B6803F1784368
:10579800B3F5003F0BD3084B986848B198680128C7
:1057A80006D09868022803D09B6803207047012020
:1057B800704700BF00ED00E00000803800000000E6
:1057C8002DE9F041CEB004464C2200210AA80DF084
:1057D8005DF82022002102A80DF058F8C02200210F
:1057E8001EA80DF053F8022004F0ACFD2368012B2D
:1057F8004FF0000354D0584A02250193C820D16ABB
:10580800564B21F00101D162D26A02F001020192E5
:105818009A6942F440429A619B6903F440430193B8
:10582800019B4E4A93699B04FCD54D4902240022F2
:1058380001268B6A04274FF0080823F0030323434B
:105848008B62052316900AA818934FF4803310969C
:10585800179419941597CDF86880CDE91B22212259
:10586800CDE91344CDE90A2305F0D0FA00B1FEE7EB
:105878003F220323294602A8CDE902230022082358
:10588800CDE9042340224023CDE9062340234FF4E9
:105898008062CDE9082305F053FE0346B8B1FEE760
:1058A8002E4A04250093F02091692B4B41F4404186
:1058B8009161926902F440420092DA6A42F0010270
:1058C800DA62DB6A03F001030093009BA9E7202258
:1058D80026932E9380212C924FF4805231930625E3
:1058E8003F931EA8279236924FF4803225914FF4A9
:1058F800401132924792002228958025409110212C
:10590800CDF888802B9720962A91CDE92F3440F244
:10591800271329934FF480632D930023CDE9234661
:10592800CDE93C234FF480740C2344940224219342
:1059380007A3D3E90023CDE93445CDE91E2306F0BA
:10594800EBF800B1FEE704F021FD4EB0BDE8F081B0
:105958000F130F030000000000040058004802580D
:105968000044025870B584B0012400F0A9FF4FF438
:1059780080764FF04052194B68460025ADF800403C
:105988000396CDE9012300F0B9FF19224FF04043F7
:1059980068468DF8082001938DF80F40ADF80D602A
:1059A8008DF801408DF80A5000F0A8FF02230B2261
:1059B80068468DF80F508DF801304FF062538DF81E
:1059C80008200193ADF80D408DF80A4000F096FFCD
:1059D800042000F083FF04B070BD00BF0E00010377
:1059E80030B50D46044685B0D1E9000184E80300CE
:1059F80000F030FAAB79002B63D0FFF77BFDFDF7A1
:105A0800DBFA0BF033F9FFF7B1F92B795BB3304CC4
:105A1800636913F4803326D1C4F88430BFF34F8F01
:105A2800D4F8801043F6E07EC1F34E3CC1F3C901BF
:105A38004FEA4C1C0CEA0E000B4640EA8372013B0D
:105A4800C4F860225A1CF8D1ACF1200C1CF1200FCC
:105A5800F0D1BFF34F8F636943F480336361BFF3C1
:105A68004F8FBFF36F8F6B79B3B1194A536913F432
:105A7800003311D1BFF34F8FBFF36F8FC2F850328D
:105A8800BFF34F8FBFF36F8F536943F400335361F4
:105A9800BFF34F8FBFF36F8F4FF0FF320023002407
:105AA800002569460B4802928DF80C30CDE9004577
:105AB8000BF010FD07480BF075FD0AF073FA05B0FE
:105AC80030BD2046FFF77CFE2046FFF74BFF94E7EA
